:020000040800F2
:10000000005000205948000885470008874700082D
:10001000894700088B4700088D4700080000000052
:100020000000000000000000000000008F470008F2
:10003000914700080000000093470008954700081A
:10004000A1480008A1480008A1480008A1480008EC
:10005000A1480008A1480008A1480008A1480008DC
:10006000A1480008A1480008A1480008A1470008CD
:10007000A1480008A1480008B1470008A1480008AD
:10008000A1480008A1480008A1480008C14700088D
:10009000D1470008A1480008A1480008E14700082E
:1000A000A1480008A1480008A1480008A14800088C
:1000B000A1480008ED470008A1480008A148000831
:1000C000A1480008A1480008A1480008A14800086C
:1000D000A1480008FD470008A1480008A148000801
:1000E000A1480008A1480008A1480008000000003D
:1000F0000000000000000000000000000000000000
:0C01000000000000000000005FF808F1A3
:1001100010B5054C237833B9044B13B10448AFF341
:1001200000800123237010BD0C000020000000009F
:10013000EC48000808B5034B1BB103490348AFF373
:10014000008008BD0000000010000020EC480008FE
:1001500081F0004102E000BF83F0004330B54FEA78
:1001600041044FEA430594EA050F08BF90EA020FE5
:100170001FBF54EA000C55EA020C7FEA645C7FEA78
:10018000655C00F0E2804FEA5454D4EB5555B8BF9B
:100190006D420CDD2C4480EA020281EA030382EA0C
:1001A000000083EA010180EA020281EA0303362D9E
:1001B00088BF30BD11F0004F4FEA01314FF4801C71
:1001C0004CEA113102D0404261EB410113F0004F83
:1001D0004FEA03334CEA133302D0524263EB43033A
:1001E00094EA050F00F0A780A4F10104D5F1200ED8
:1001F0000DDB02FA0EFC22FA05F2801841F1000133
:1002000003FA0EF2801843FA05F359410EE0A5F106
:1002100020050EF1200E012A03FA0EFC28BF4CF037
:10022000020C43FA05F3C01851EBE37101F00045ED
:1002300007D54FF0000EDCF1000C7EEB00006EEBFA
:100240000101B1F5801F1BD3B1F5001F0CD3490884
:100250005FEA30004FEA3C0C04F101044FEA4452DB
:1002600012F5800F80F09A80BCF1004F08BF5FEA62
:10027000500C50F1000041EB045141EA050130BD42
:100280005FEA4C0C404141EB010111F4801FA4F1E5
:100290000104E9D191F0000F04BF01460020B1FA3A
:1002A00081F308BF2033A3F10B03B3F120020CDA72
:1002B0000C3208DD02F1140CC2F10C0201FA0CF050
:1002C00021FA02F10CE002F11402D8BFC2F1200CB5
:1002D00001FA02F120FA0CFCDCBF41EA0C0190406B
:1002E000E41AA2BF01EB0451294330BD6FEA0404B4
:1002F0001F3C1CDA0C340EDC04F11404C4F120029F
:1003000020FA04F001FA02F340EA030021FA04F3B0
:1003100045EA030130BDC4F10C04C4F1200220FA07
:1003200002F001FA04F340EA0300294630BD21FA45
:1003300004F0294630BD94F0000F83F4801306BF0B
:1003400081F480110134013D4EE77FEA645C18BFFF
:100350007FEA655C29D094EA050F08BF90EA020F96
:1003600005D054EA000C04BF1946104630BD91EA8E
:10037000030F1EBF0021002030BD5FEA545C05D191
:100380004000494128BF41F0004130BD14F58004D0
:100390003CBF01F5801130BD01F0004545F0FE4144
:1003A00041F470014FF0000030BD7FEA645C1ABF79
:1003B000194610467FEA655C1CBF0B46024650EAB0
:1003C000013406BF52EA033591EA030F41F40021DC
:1003D00030BD00BF90F0000F04BF0021704730B562
:1003E0004FF4806404F132044FF000054FF0000137
:1003F00050E700BF90F0000F04BF0021704730B5F8
:100400004FF4806404F1320410F0004548BF4042CC
:100410004FF000013EE700BF42004FEAE2014FEA21
:1004200031014FEA02701FBF12F07F4393F07F4FFC
:1004300081F06051704732F07F4208BF704793F0FF
:100440007F4F04BF41F40021704730B54FF4607412
:1004500001F0004521F000411CE700BF50EA010215
:1004600008BF704730B54FF000050AE050EA0102BE
:1004700008BF704730B511F0004502D5404261EB2E
:1004800041014FF4806404F132045FEA915C3FF46F
:10049000D8AE4FF003025FEADC0C18BF03325FEA0C
:1004A000DC0C18BF033202EBDC02C2F1200300FABD
:1004B00003FC20FA02F001FA03FE40EA0E0021FAE2
:1004C00002F11444BDE600BF70B54FF0FF0C4CF4D0
:1004D000E06C1CEA11541DBF1CEA135594EA0C0F82
:1004E00095EA0C0F00F0DEF82C4481EA030621EABD
:1004F0004C5123EA4C5350EA013518BF52EA0335F8
:1005000041F4801143F4801338D0A0FB02CE4FF0A9
:100510000005E1FB02E506F00042E0FB03E54FF0D9
:100520000006E1FB03569CF0000F18BF4EF0010ED1
:10053000A4F1FF04B6F5007F64F5407404D25FEACD
:100540004E0E6D4146EB060642EAC62141EA555180
:100550004FEAC52040EA5E504FEACE2EB4F1FD0CC2
:1005600088BFBCF5E06F1ED8BEF1004F08BF5FEA40
:10057000500E50F1000041EB045170BD06F00046F2
:1005800046EA010140EA020081EA0301B4EB5C049F
:10059000C2BFD4EB0C0541EA045170BD41F4801197
:1005A0004FF0000E013C00F3AB8014F1360FDEBFBC
:1005B000002001F0004170BDC4F10004203C35DA98
:1005C0000C341BDC04F11404C4F1200500FA05F31B
:1005D00020FA04F001FA05F240EA020001F00042BC
:1005E00021F0004110EBD37021FA04F642EB060132
:1005F0005EEA430E08BF20EAD37070BDC4F10C045C
:10060000C4F1200500FA04F320FA05F001FA04F21F
:1006100040EA020001F0004110EBD37041F100010B
:100620005EEA430E08BF20EAD37070BDC4F1200516
:1006300000FA05F24EEA020E20FA04F301FA05F27E
:1006400043EA020321FA04F001F0004121FA04F226
:1006500020EA020000EBD3705EEA430E08BF20EAF6
:10066000D37070BD94F0000F0FD101F00046400030
:1006700041EB010111F4801F08BF013CF7D041EAB2
:10068000060195F0000F18BF704703F000465200B6
:1006900043EB030313F4801F08BF013DF7D043EA87
:1006A0000603704794EA0C0F0CEA135518BF95EA3D
:1006B0000C0F0CD050EA410618BF52EA4306D1D1C4
:1006C00081EA030101F000414FF0000070BD50EAE3
:1006D000410606BF1046194652EA430619D094EA6D
:1006E0000C0F02D150EA013613D195EA0C0F05D157
:1006F00052EA03361CBF104619460AD181EA0301AB
:1007000001F0004141F0FE4141F470014FF0000062
:1007100070BD41F0FE4141F4780170BD70B54FF0FD
:10072000FF0C4CF4E06C1CEA11541DBF1CEA13557D
:1007300094EA0C0F95EA0C0F00F0A7F8A4EB05045F
:1007400081EA030E52EA03354FEA013100F0888056
:100750004FEA03334FF0805545EA131343EA12631F
:100760004FEA022245EA111545EA10654FEA0026D4
:100770000EF000419D4208BF964244F1FD0404F58D
:10078000407402D25B084FEA3202B61A65EB0305E9
:100790005B084FEA32024FF480104FF4002CB6EBA6
:1007A000020E75EB030E22BFB61A754640EA0C0026
:1007B0005B084FEA3202B6EB020E75EB030E22BF66
:1007C000B61A754640EA5C005B084FEA3202B6EBA7
:1007D000020E75EB030E22BFB61A754640EA9C0066
:1007E0005B084FEA3202B6EB020E75EB030E22BF36
:1007F000B61A754640EADC0055EA060E18D04FEAF4
:10080000051545EA16754FEA06164FEAC30343EA93
:1008100052734FEAC2025FEA1C1CC0D111F4801F60
:100820000BD141EA00014FF000004FF0004CB6E759
:1008300011F4801F04BF01430020B4F1FD0C88BFF8
:10084000BCF5E06F3FF6AFAEB5EB030C04BFB6EB03
:10085000020C5FEA500C50F1000041EB045170BDF6
:100860000EF0004E4EEA113114EB5C04C2BFD4EB23
:100870000C0541EA045170BD41F480114FF0000EA7
:10088000013C90E645EA060E8DE60CEA135594EA23
:100890000C0F08BF95EA0C0F3FF43BAF94EA0C0F26
:1008A0000AD150EA01347FF434AF95EA0C0F7FF49B
:1008B00025AF104619462CE795EA0C0F06D152EAEF
:1008C00003353FF4FDAE1046194622E750EA4106D3
:1008D00018BF52EA43067FF4C5AE50EA41047FF4E4
:1008E0000DAF52EA43057FF4EBAE12E74FEA410247
:1008F000B2F1E04324BFB3F5001CDCF1FE5C0DD97E
:1009000001F0004C4FEAC0024CEA5070B2F1004FC7
:1009100040EB830008BF20F00100704711F0804FCA
:1009200021D113F13872BCBF01F00040704741F48F
:1009300080114FEA5252C2F11802C2F1200C10FA93
:100940000CF320FA02F018BF40F001004FEAC12377
:100950004FEAD32303FA0CFC40EA0C0023FA02F31B
:100960004FEA4303CCE77FEA625307D150EA0133F1
:100970001EBF4FF0FE4040F44000704701F00040C1
:1009800040F0FE4040F40000704700BF10B5044640
:100990000E4B18784FF47A73B3FBF0F30C4A1068DF
:1009A000B0FBF3F000F096FE68B90F2C01D90120DE
:1009B0000AE0002221464FF0FF3000F04BFE034BCF
:1009C0005C60002000E0012010BD00BF000000209E
:1009D0000800002008B5074A136843F010031360AD
:1009E000032000F025FE0020FFF7D0FF03F042FDBA
:1009F000002008BD00200240034A1168034B1B7809
:100A00000B441360704700BFD80000200000002096
:100A1000014B1868704700BFD800002038B5044665
:100A2000FFF7F6FF0546B4F1FF3F02D0044B1B78F9
:100A30001C44FFF7EDFF401BA042FAD338BD00BFB6
:100A40000000002008B5436A9A6A12F0500F03D0E4
:100A50001B6A1B6B984708BD9A6A42F400729A623F
:100A60001A68926802F46022B2F5602F03D018462B
:100A700003F028F8EFE7DA68002AF8D19A6A22F43E
:100A800080729A629A6A12F4805FF0D19A6A42F098
:100A900001029A62EBE708B5406A03F075F808BDF9
:100AA000704708B5406A836A43F040038362C36AB3
:100AB00043F00403C362FFF7F3FF08BD30B482B014
:100AC0000023019390F82430012B00F08B80024624
:100AD000012380F824304B68062B29D80568686B01
:100AE00003EB8303053B1F249C4020EA04000C68B1
:100AF00004FA03F303436B630B68092B38D91568B9
:100B0000E86803EB43031E3B07249C4020EA0400F3
:100B10008C6804FA03F30343EB600B68103B012B72
:100B200034D90020002382F8243002B030BC704752
:100B30000C2B0ED80568286B03EB8303233B1F2483
:100B40009C4020EA04000C6804FA03F303432B637F
:100B5000D2E70568E86A03EB8303413B1F249C400E
:100B600020EA04000C6804FA03F30343EB62C3E7D2
:100B70001568286903EB430307249C4020EA04001E
:100B80008C6804FA03F303432B61C6E71368164825
:100B9000834205D0936A43F0200393620120C1E7AA
:100BA000986810F4000F1BD1986840F4000098601A
:100BB0000B68102B01D00020B4E70C4B1B680C49CC
:100BC000A1FB03139B0C03EB83035900019102E08B
:100BD000019B013B0193019B002BF9D10020A1E770
:100BE00000209FE70220A0E7002401400800002029
:100BF00083DE1B4330B583B00023019303689A68FA
:100C000012F0010F2ED19A6842F001029A60174B40
:100C10001B68174AA2FB03239B0C019302E0019B74
:100C2000013B0193019B002BF9D10446FFF7F0FE35
:100C3000054623689B6813F0010F11D1FFF7E8FE0A
:100C4000401B0228F5D9A36A43F01003A362E36AAC
:100C500043F00103E362002384F82430012002E022
:100C6000002000E0002003B030BD00BF08000020DD
:100C700083DE1B43F8B50468454DAC425BD0454B61
:100C80009C4258D090F82440012C7ED016460D4648
:100C90000446012380F82430FFF7ACFF0746002804
:100CA0006ED1A36A23F4706323F0010343F48073CD
:100CB000A3622268374B9A4244D0A36A23F480137C
:100CC000A362536813F4806F05D0A36A23F44053E2
:100CD00043F48053A362A36A13F4805F48D0E36AAD
:100CE00023F00603E362002384F82430236A2A4AAF
:100CF0009A62236A294ADA62236A294A1A632368B4
:100D00006FF002021A602268936843F48073936064
:100D1000216833462A464C31206A00F059FD22688A
:100D2000936803F46023B3F5602F24D0936843F4F1
:100D30008013936027E0164B5B6813F4702FA1D0EB
:100D4000012720E0A3F580635B6813F4702FB4D013
:100D5000A36A43F48013A3620D4B5B6813F4806FA6
:100D6000B9D0A36A23F4405343F48053A362B2E79B
:100D70000023E362B7E7936843F4A003936002E0C3
:100D8000002384F824303846F8BD0227FBE700BF73
:100D90000024014000280140450A0008970A000885
:100DA000A30A000838B503689A6812F0010F01D150
:100DB000002038BD04469A6822F001029A60FFF7CD
:100DC00027FE054623689B6813F0010F0ED0FFF73E
:100DD0001FFE401B0228F5D9A36A43F01003A3624B
:100DE000E36A43F00103E3620120E2E70020E0E769
:100DF00000287FD038B50446836A002B33D02046C4
:100E0000FFF7D0FFA36A13F010036DD100286BD158
:100E1000A26A22F4885222F0020242F00202A26286
:100E20006268E1690A43E56842EA4502A168B1F5F2
:100E3000807F21D001291CD0616901291FD025683C
:100E4000696821F469410B436B6021688D682A4B06
:100E50002B4013438B60A368B3F5807F20D0012B18
:100E60001ED000211FE0C36280F8243003F052FB43
:100E7000C5E74FF48073DFE74FF48073DCE735B9E3
:100E8000A169013943EA413343F40063D7E7A16A1A
:100E900041F02001A162E16A41F00101E162CEE787
:100EA0002369013B19052568EB6A23F470030B43A2
:100EB000EB6223689968114B0B409A420BD0A36AEE
:100EC00023F0120343F01003A362E36A43F001032B
:100ED000E36201200DE00023E362A36A23F0030331
:100EE00043F00103A36204E0A36A43F01003A3628A
:100EF000012038BD01207047FDF7E1FFFE0E1FFF06
:100F0000F0B44B6901229A400468D4F8003223F40B
:100F10007C534D6A43EA052343F00103C4F80032D1
:100F20000568D5F81C42D3431C40C5F81C42CC6967
:100F3000C4B90568D5F80C421C40C5F80C42CF680E
:100F40008D8806684C6945EA0745483446F83450B0
:100F50008F680D8804684E6945EA0745483604EBFA
:100F6000C6046560CC69012C1ED08C69002C35D17B
:100F70000568D5F804421C40C5F804420C69002CF1
:100F800033D10468D4F814522B40C4F814320B6ADD
:100F9000012B31D00268D2F8003223F00103C2F8ED
:100FA00000320020F0BC70470568D5F80C421443AD
:100FB000C5F80C420F688D8806684C6945EA0745FC
:100FC000483446F834508F688D8904684E6945EA84
:100FD0000745483604EBC6046560C6E70568D5F8E2
:100FE00004421443C5F80442C8E70468D4F8143234
:100FF0001343C4F81432CAE70168D1F81C321A430B
:10100000C1F81C22C6E7002800F0968038B50446D7
:1010100090F83C3003B3022384F83C302268136814
:1010200023F0020313602268136843F00103136086
:10103000FFF7EEFC054623685A6812F0010F10D145
:10104000FFF7E6FC401B0A28F5D9032084F83C0092
:10105000002384F83D3038BD80F83D3003F0A6FA17
:10106000D9E75A6812F0010F5BD0A269012A43D078
:101070000022E169012941D022F04002216A0129C0
:101080003FD022F02002616A01293DD022F01002F7
:10109000A16A01293BD022F00802E16A012939D076
:1010A00022F00402196821F0FC010A431A60A368C7
:1010B000E268134322691343626913436268013A89
:1010C00021681343CB612268136823F00103136086
:1010D000FFF79EFC054623685A6812F0010F1CD0EA
:1010E000FFF796FC401B0A28F5D9032084F83C0042
:1010F000002384F83D30AEE78022BAE742F0400298
:10110000BCE742F02002BEE742F01002C0E742F026
:101110000802C2E742F00402C4E75B6813F0010F63
:1011200004D0042384F83C30012094E7002020649C
:10113000012384F83C308EE7012070470A4699B9B4
:1011400090F83C30DBB2222B7CD090F83C30DBB204
:10115000422B79D090F83C30DBB2622B76D090F8FD
:101160003C30DBB2722B73D0012A16D090F83D30A0
:10117000012B75D010B4012380F83D30002A41D1F5
:1011800090F83C30DBB2322B34D0522B36D0122BBD
:1011900019D0222380F83C3018E090F83C30DBB2C4
:1011A000322B57D090F83C30DBB2522B54D090F811
:1011B0003C30DBB2622B51D090F83C30DBB2722B6A
:1011C000D4D102207047422380F83C3000210164D2
:1011D0000468636943F40F4343F00103636180F8DB
:1011E0003D1042B30268536943F05003536100203D
:1011F00010BC7047622380F83C30E7E7722380F828
:101200003C30E3E790F83C30DBB2222B0BD0422B92
:101210000DD0122B03D0322380F83C30D6E7522376
:1012200080F83C30D2E7622380F83C30CEE772236E
:1012300080F83C30CAE70268536943F00A035361FF
:101240000846D5E702207047022070470220704709
:10125000022070470220704702207047022070472A
:1012600002207047704708B50268536923F00103F4
:10127000536190F83C30DBB2122B0CD090F83C302C
:10128000DBB2522B14D0722B16D0422B09D0012383
:1012900080F83C3008E00268536923F40F4353613F
:1012A000ECE7222380F83C30FFF7DCFF002008BD8C
:1012B000322380F83C30F7E7622380F83C30F3E7D4
:1012C00010B50C46002978D1436B016804F11B026C
:1012D00012018A5802F004029A60002A6FD1016854
:1012E00004F11B0212018A58520D1A60016804F1C0
:1012F0001B021201895801F00201D96001681144F2
:10130000496801F00F0119611C6201680A445268C2
:10131000C2F30722DA61016822011144D1F8B81141
:10132000197501681144D1F8B811090A5975016895
:101330001144D1F8B811090C997501681144D1F81C
:10134000B811090ED97501681144D1F8BC1119768C
:1013500001681144D1F8BC11090A59760168114499
:10136000D1F8BC11090C997601680A44D2F8BC2165
:10137000120EDA765CBB03682022DA6002685369D9
:1013800023F00A03536190F83C30DBB2222B01D0EA
:10139000322B04D10268536923F40F43536174BBA9
:1013A00090F83C30DBB2622B21D0722B23D0422B41
:1013B00016D0012380F83C3015E0836B85E7016887
:1013C00004F11B0212018A58D2085A608EE70368A2
:1013D00020221A610268536923F050035361D2E757
:1013E000122380F83C3002F00DFD002010BD3223A6
:1013F00080F83C30F7E7522380F83C30F3E790F870
:101400003C30DBB2622B0BD0722B0DD0522B03D0B1
:10141000012380F83C30E6E7122380F83C30E2E715
:10142000222380F83C30DEE7422380F83C30DAE7C4
:101430007047000070B504460268D168536911F026
:10144000100F09D003F00803002B00F0A680102332
:10145000D3604FF4007500E00025226811695369DC
:1014600003F0400311F0100F04D01BB145F4806568
:101470001023136123685A6912F0010F28D09E6867
:101480009968674A0A40996821F06F4121F47E010A
:10149000090C09046348B04305D06148824202D078
:1014A000614A914214D199689A6802F400729B686B
:1014B00003F0010311F0020F02D10AB9002B6ED024
:1014C0002046FFF7D0FE22689168584B0B4393608B
:1014D0002368DA685B6903F0020312F0030F01D09E
:1014E000002B5FD123681A695B6903F0100312F0C7
:1014F000030F01D0002B5AD1236C2B4323642368A4
:1015000098695A6902F48072596901F4004110F037
:10151000010F05D022B119B1226C42F00102226400
:1015200098695A6902F40072596901F4004110F097
:10153000020F05D022B119B1226C42F002022264DE
:1015400098695A6902F48062596901F4004110F007
:10155000040F05D022B119B1226C42F004022264BA
:1015600098695A6902F40062596901F4004110F067
:10157000700F32D08AB381B39A6902F07002302AB8
:101580002ED019D9502A30D0602A33D0402A20D109
:10159000226C42F0400222641BE000255DE745F426
:1015A000006590E700212046FFF78AFE9AE70121B7
:1015B0002046FFF785FE9FE7102A06D0202A08D193
:1015C000226C42F01002226403E0226C42F0080216
:1015D00022649A6922F070029A61236C7BB970BD13
:1015E000226C42F020022264F3E7226C42F0800277
:1015F0002264EEE7226C42F480722264E9E72368F9
:1016000004225A60012384F83C302268536923F491
:101610000F4323F05B0353612046FFF709FFDEE72A
:10162000000100080100000400000110090501008C
:10163000074AD36823F4E0631B041B0C000200F488
:10164000E060184340F0BF6040F40030D060704765
:1016500000ED00E030B4174BDB68C3F30223C3F1A5
:101660000704042C28BF04241D1D062D18D9033B94
:101670004FF0FF3505FA04F421EA0401994005FA18
:1016800003F322EA0303194300280BDB0901C9B263
:1016900000F1604000F5614080F8001330BC7047F5
:1016A0000023E5E700F00F000901C9B2024B19540D
:1016B000F4E700BF00ED00E014ED00E000F01F02D1
:1016C000400901239340024A42F82030704700BF8E
:1016D00000E100E00138B0F1807F0AD2064B58608B
:1016E000064AF02182F823100020986007221A6031
:1016F00070470120704700BF10E000E000ED00E0FF
:10170000042805D0054A136823F0040313607047CA
:10171000024A136843F004031360704710E000E0CE
:10172000704708B5FFF7FCFF08BD70B4066CC56BC9
:101730000124B4406C60046863604368102B05D0DA
:10174000036899600368DA6070BC704703689A6048
:101750000368D960F8E70000002830D010B40346D1
:101760000168184A0A441848A0FB020212099200B4
:101770001A64164ADA63022283F82120086820F4EA
:101780007F5020F030005A689C682243DC68224376
:101790001C6922435C6922439C692243DC69224321
:1017A00002430A6000209862D86218635863986305
:1017B000012283F8212083F8200010BC704701200B
:1017C000704700BFF8FFFDBFCDCCCCCC000002407D
:1017D00038B590F82040012C32D0012480F8204008
:1017E00090F82140012C04D0002380F82030022002
:1017F00038BD0446022084F821000020A06325683B
:10180000286820F0010028602046FFF78EFFE36A79
:101810005BB12268136843F00E03136022681368FB
:1018200043F0010313600020E2E72268136823F00D
:10183000040313602268136843F00A031360EDE7A2
:101840000220D5E708B590F82130022B03D00423FD
:101850008363012008BD0268136823F00E03136040
:101860000268136823F0010313600368194A934266
:1018700014D0143293421FD0143293421ED014322B
:1018800093421ED0143293421ED01432934202D09F
:101890004FF0807203E04FF4801200E001220E4B03
:1018A0005A60012380F82130002380F82030436BF8
:1018B0006BB198470020CDE71022F0E74FF480721B
:1018C000EDE74FF48052EAE74FF48032E7E700207B
:1018D000C0E700BF080002400000024038B5C36BFB
:1018E0001A6804682568016C04238B40134235D0C4
:1018F00015F0040F32D0236813F0200F03D12368B2
:1019000023F0040323600368434A934214D0143243
:10191000934218D01432934217D01432934217D006
:101920001432934217D01432934202D04FF08062A7
:1019300003E04FF4800200E00422384B5A60C36A8F
:1019400003B1984738BD4022F7E74FF48062F4E7CF
:101950004FF48042F1E74FF48022EEE702238B4000
:1019600013423CD015F0020F39D0236813F0200F3A
:1019700006D1236823F00A032360012380F8213075
:101980000368254A934214D0143293421CD0143277
:1019900093421BD0143293421BD0143293421BD07B
:1019A0001432934202D04FF0007203E04FF4001261
:1019B00000E00222194B5A60002380F82030836A2D
:1019C000002BBFD09847BDE72022F3E74FF4007209
:1019D000F0E74FF40052EDE74FF40032EAE7082356
:1019E00003FA01F11142ADD015F0080FAAD0236817
:1019F00023F00E032360026CC16B012303FA02F291
:101A00004A60836380F82130002380F82030036B24
:101A1000002B97D0984795E708000240000002404D
:101A2000F0B482B000263546A1E0002C59D0012C3C
:101A300000D1CE68FF2B68D88446FF2B68D8AC0055
:101A4000DCF800200F27A74022EA070206FA04F478
:101A50002243CCF800204A6812F0805F00F08680B4
:101A60005E4A946944F001049461926902F00102B3
:101A70000192019AAC08A71C594A52F8272005F098
:101A80000307BF004FF00F0C0CFA07FC22EA0C0C06
:101A9000544A904242D002F5806290427FD002F5D3
:101AA000806290427DD002F58062904234D0042260
:101AB00035E04D4FBC4214D00BD94C4FBC4210D036
:101AC00007F58037BC420CD0A7F58017BC42B1D1D6
:101AD00007E0A7F58017BC4203D007F58037BC426A
:101AE000A8D18C687CB1012C08D042610826A1E7FE
:101AF000CE6808369EE7CE680C369BE70261082662
:101B000098E7002696E7042694E700F1040C94E792
:101B1000A5F10804A40093E7032200E00022BA40E4
:101B200042EA0C0202342E4F47F824204A6812F48D
:101B3000803F38D02E4C22681A4322604A6812F443
:101B4000003F36D02A4C62681A4362604A6812F439
:101B5000801F34D0264CA2681A43A2604A6812F44F
:101B6000001F32D0224CE2681343E36001350F2D91
:101B700031D80122AA400B6813409A42F6D14C6832
:101B8000122CB8D095D8022CB2D07FF64EAF032CD1
:101B9000B7D0112C7FF44EAFCE6804364AE701224D
:101BA000BDE70222BBE7124C226822EA0302226050
:101BB000C4E70F4C626822EA03026260C6E70C4C7D
:101BC000A26822EA0302A260C8E7094CE26822EA9E
:101BD0000303E360CAE702B0F0BC704700100240A4
:101BE00000000140000801400000211000003110F9
:101BF000000401408368194201D100207047012090
:101C0000704712B909040161704701617047C368E8
:101C10005940C1607047000008B5054B5B6903423D
:101C200000D108BD024B586102F0BAFBF9E700BFD2
:101C30000004014003685A6912F4806F0DD06FF4FC
:101C400080625A610423036400230363202280F826
:101C50003D2080F83C300120704700207047F8B5E7
:101C600006460C4617461D461EE02DB1FEF7D0FE77
:101C7000069BC01AA84217D900233363202286F896
:101C80003D2086F83E3086F83C3003201AE0336869
:101C90005B6924EA03039BB2B3FA83F35B099F42B7
:101CA0000FD1B5F1FF3FE0D1C4F30743012BEED0D4
:101CB00033689B6924EA03039BB2B3FA83F35B099D
:101CC000EDE70020F8BDF8B504460D4616461F4660
:101CD00032E01A6842F400721A6023686FF480627E
:101CE0005A610423236400232363202284F83D20C7
:101CF00084F83C3001202DE026B1FEF789FEC01BA0
:101D0000B04219D900232363202284F83D2084F8AF
:101D10003C3003201EE023685B6925EA03039BB285
:101D2000003318BF0123A3B123685A6912F4806FEE
:101D3000CFD1B6F1FF3FDFD1C5F30743012BEAD086
:101D400023689B6925EA03039BB2003318BF012374
:101D5000E9E70020F8BD0000F0B583B004460D4669
:101D600016461F46C36A042B0DD0012B0BD013F56A
:101D7000803F08D0036B122B0AD10268136843F42A
:101D80008073136004E02268136843F48073136067
:101D90000097334600224FF001112046FFF75FFF06
:101DA00058BB2369B3F5804F10D1236805F0FE05B9
:101DB0001D613B46324615492046FFF784FF034626
:101DC000E0B1236C042B1ED1012317E0EB11226834
:101DD00003F0060343F0F00313613B4632460C491F
:101DE0002046FFF770FF20B1236C042B09D101239B
:101DF00004E02368EDB21D61DBE70323184603B05E
:101E0000F0BD0323FAE70323F8E700BF0200010057
:101E1000080001002DE9F04184B004460D46164645
:101E20001F46C26A01680B6843F480630B60042A92
:101E30000DD0012A0BD012F5803F08D0036B112B77
:101E40000AD10268136843F48073136004E02268C7
:101E5000136843F4807313600097334600224FF0F9
:101E600001112046FFF7FBFE002852D12369B3F58C
:101E7000804F12D1236845F00105EDB21D613B464C
:101E800032462A492046FFF71EFF0346002841D06C
:101E9000236C042B48D101233CE04FEAE51808F0FD
:101EA0000608236848F0F0021A613B463246204992
:101EB0002046FFF708FF20B1236C042B2ED101230D
:101EC00028E02368EDB21D613B46324617492046A3
:101ED000FFF7F9FE20B1236C042B21D1012319E077
:101EE0000022039223685969039199690391039928
:101EF000196841F480711960009733464FF0011161
:101F00002046FFF7ACFE68B9226848F0F103136180
:101F1000B5E70323184604B0BDE8F0810323F9E7D1
:101F20000323F7E70323F5E70323F3E702000100A8
:101F30000800010070B504460D46164623685B692B
:101F400013F0800F19D12046FFF774FEB8B9B5F130
:101F5000FF3FF3D025B1FEF75BFD801BA842EDD912
:101F6000236C43F02003236400232363202284F89E
:101F70003D2084F83C30032000E0002070BD0120AB
:101F8000FCE770B504460D46164623685B6913F0FE
:101F9000040F19D12046FFF74DFEB8B9B5F1FF3F48
:101FA000F3D025B1FEF734FD801BA842EDD9236C98
:101FB00043F02003236400232363202284F83D2080
:101FC00084F83C30032000E0002070BD0120FCE7D5
:101FD00070B505460C4616462B685A6912F0400F3C
:101FE00022D15A6912F0100F11D124B1FEF710FD61
:101FF000801BA042F0D92B6C43F020032B642023DC
:1020000085F83D30002385F83C30032070BD6FF02B
:1020100010025A6100232B642B63202285F83D2097
:1020200085F83C300120F1E70020EFE7002800F0C0
:10203000A28038B5044690F83D30002B4FD02423C1
:1020400084F83D302268136823F00103136000F028
:10205000DBFD62684A4B9A4246D84A4B98428CBF95
:1020600000230123002B40F08880474BA3FB002373
:102070009B0C226853606168414A91423AD801330F
:102080002268136261683E4B99423DD8431E490065
:10209000B3FBF1F30133C3F30B03042B38BF042369
:1020A0002268D361E369216A22680B4313602369C4
:1020B000E16822680B4393606369A16922680B435E
:1020C000D3602268136843F001031360002020648A
:1020D000202384F83D30206384F83E0038BD80F82A
:1020E0003C3002F0A1FAAAE7284B98428CBF0023AB
:1020F0000123B7E74FF4967202FB03F3244AA2FBD5
:1021000003239B090133BBE7A368BBB9421E01EB64
:102110004105B2FBF5F20132C2F30B02B2FA82F2D0
:10212000520932BBC3B9013801EB4103B0FBF3F3F1
:102130000133C3F30B0343F40043B1E7421E01EB49
:10214000810505EB8505B2FBF5F20132C2F30B0206
:10215000B2FA82F25209E4E7013801EB810303EBA2
:102160008303B0FBF3F30133C3F30B0343F44043A6
:1021700096E7012394E7012070470120AEE700BFF6
:10218000A08601007F841E0083DE1B43FF083D0004
:10219000D34D62102DE9F04184B004460E469046BE
:1021A0001F46FEF735FC94F83D30DBB2202B04D0FF
:1021B0000226304604B0BDE8F081054600901923A0
:1021C000012254492046FFF74AFD002840F099803B
:1021D00094F83C30012B00F09680012384F83C30C9
:1021E00023681A6812F0010F03D11A6842F0010245
:1021F0001A602268136823F400631360212384F8B3
:102200003D30102384F83E3000232364C4F824803A
:102210006785A3F58033E362638D23852B460A9A95
:1022200031462046FFF798FD064660B1236C042B2B
:1022300004D1002384F83C300126BAE7002384F857
:102240003C300326B5E70023039323685A690392C1
:102250009B690393039B10E0236C042B55D12268E8
:10226000136843F4007313600126A2E72A460A9913
:102270002046FFF786FE00282BD1238D002B32D07D
:102280002A460A992046FFF755FE0028E4D1636AE2
:102290005A1C626222681B781361638D013B9BB2FA
:1022A0006385238D013B9BB223852268516911F020
:1022B000040FDBD0002BD9D0636A591C61621B78F4
:1022C0001361638D013B9BB26385238D013B2385A5
:1022D000CCE7236C042B1AD12268136843F40073F3
:1022E0001360012665E72268136843F400731360E6
:1022F000202384F83D30002384F83E3084F83C30BD
:1023000057E7022655E7022653E7032651E703263F
:102310004FE700BF020010002DE9F04186B00446EF
:102320000E4690461F46FEF773FB94F83D30DBB235
:10233000202B04D00226304606B0BDE8F0810546C9
:102340000090192301228F492046FFF788FC0028BE
:1023500040F0518194F83C30012B00F04E81012374
:1023600084F83C3023681A6812F0010F03D11A6810
:1023700042F001021A602268136823F400631360BC
:10238000222384F83D30102384F83E300023236458
:10239000C4F824806785A3F58033E362638D2385C9
:1023A0002B460C9A31462046FFF734FD064660B1B5
:1023B000236C042B04D1002384F83C300126BAE7B7
:1023C000002384F83C300326B5E7238D5BB90293E4
:1023D00023685A6902929A690292029A1A6842F430
:1023E00000721A607FE0012B0FD0022B21D02268EF
:1023F000136843F4806313600023059323685A69CC
:1024000005929B690593059B6DE02268136823F490
:102410008063136072B60023039323685A690392A2
:102420009A690392039A1A6842F400721A6062B6BB
:1024300059E02268136843F40063136072B6002306
:10244000049323685A6904929A690492049A1A6858
:1024500022F480621A6062B645E02A460C99204652
:10246000FFF7B6FD68B923681A69636A591C61628F
:102470001A70238D013B2385638D013B9BB26385DD
:1024800031E0236C202B01D0012654E7032652E7CC
:1024900000950C9B00223C492046FFF7E0FB0028FA
:1024A00040F0AD8072B62268136843F40073136085
:1024B00023681A69636A591C61621A70238D013B93
:1024C0002385638D013B9BB2638562B623681A69DD
:1024D000636A591C61621A70238D013B2385638DE9
:1024E000013B9BB26385238D002B7BD0032B4DD802
:1024F000012BB2D0022BCBD000950C9B002222499D
:102500002046FFF7ACFB00287BD12268136823F438
:102510008063136072B623681A69636A591C61622A
:102520001A70238D013B2385638D013B9BB263852C
:1025300000950C9B002214492046FFF790FB0028D1
:1025400061D12268136843F40073136023681A6929
:10255000636A591C61621A70238D013B2385638D68
:10256000013B9BB2638562B623681A69636A591C92
:1025700061621A70238D013B2385638D013B9BB201
:102580006385B0E702001000040001002A460C99A0
:102590002046FFF71DFDF0B923681A69636A591CCC
:1025A00061621A70238D013B2385638D013B9BB2D1
:1025B000638523685A6912F0040F94D01A69636A1C
:1025C000591C61621A70238D013B2385638D013B89
:1025D0009BB2638587E7236C202B01D00126AAE6F6
:1025E0000326A8E6202384F83D30002384F83E30FB
:1025F00084F83C309FE602269DE602269BE60326F1
:1026000099E6032697E6032695E600BF82B0084BBD
:102610001B68084AA2FB03235B0A00FB03F001903E
:1026200000BF019B5A1E0192002BF9D102B07047E6
:1026300008000020D34D621070B582B004460368D4
:1026400013F0010F2CD0AB4B5B6803F00C03042B91
:102650001DD0A84B5B6803F00C03082B12D06368F5
:10266000B3F5803F41D0002B55D103F1804303F5F2
:1026700004331A6822F480321A601A6822F4802225
:102680001A6037E09B4B5B6813F4803FE7D0994BAF
:102690001B6813F4003F03D06368002B00F0AE8189
:1026A000236813F0020F76D0924B5B6813F00C0F87
:1026B0005FD0904B5B6803F00C03082B54D0236968
:1026C000002B00F08A808C4B01221A60FEF7A0F9E3
:1026D0000546884B1B6813F0020F75D1FEF798F979
:1026E000401B0228F5D903208BE1824A136843F48A
:1026F00080331360636843B3FEF78AF905467D4B68
:102700001B6813F4003FCBD1FEF782F9401B64280D
:10271000F5D9032075E1B3F5A02F09D0754B1A68E0
:1027200022F480321A601A6822F480221A60E1E7EB
:1027300003F18043A3F53C331A6842F480221A6007
:102740001A6842F480321A60D4E7FEF761F9054650
:10275000684B1B6813F4003FA2D0FEF759F9401BE9
:102760006428F5D903204CE1624B5B6813F4803F89
:10277000A5D1604B1B6813F0020F04D02369012B15
:1027800001D001203DE15B4A136823F0F803616941
:1027900043EAC1031360236813F0080F32D0A36922
:1027A000002B5BD0554B01221A60FEF731F905462C
:1027B000504B5B6A13F0020F21D1FEF729F9401B41
:1027C0000228F5D903201CE14A4A136823F0F803D4
:1027D000616943EAC1031360DDE7474B00221A60D9
:1027E000FEF716F90546434B1B6813F0020FD2D0D3
:1027F000FEF70EF9401B0228F5D9032001E1012064
:10280000FFF704FF236813F0040F00F09780394BA3
:10281000DB6913F0805F33D1364BDA6942F08052C6
:10282000DA61DB6903F080530193019B0125344B8E
:102830001B6813F4807F25D0E368012B36D0002B72
:102840004CD103F1804303F504331A6A22F00102EC
:102850001A621A6A22F004021A622CE0274B002244
:102860001A60FEF7D5F80546224B5B6A13F0020F9B
:10287000C8D0FEF7CDF8401B0228F5D90320C0E0F0
:102880000025D4E71E4A136843F480731360FEF7F3
:10289000BFF806461A4B1B6813F4807FCCD1FEF7B5
:1028A000B7F8801B6428F5D90320AAE0114A136AFF
:1028B00043F001031362E36873B3FEF7A9F8064619
:1028C0000C4B1B6A13F0020F37D1FEF7A1F8801BE7
:1028D00041F288339842F3D9032092E0052B11D0BE
:1028E000044B1A6A22F001021A621A6A22F00402E8
:1028F0001A62E0E7001002400000424280044242B7
:1029000000700040414B1A6A42F004021A621A6ACF
:1029100042F001021A62CEE7FEF77AF806463B4B18
:102920001B6A13F0020F08D0FEF772F8801B41F209
:1029300088339842F3D9032063E0E5B9E369002BBB
:102940005ED0324A526802F00C02082A5BD0022B99
:1029500017D02F4B00221A60FEF75AF804462B4B73
:102960001B6813F0007F47D0FEF752F8001B0228C7
:10297000F5D9032045E0254AD36923F08053D3617C
:10298000DCE7234B00221A60FEF742F805461F4B96
:102990001B6813F0007F06D0FEF73AF8401B0228B0
:1029A000F5D903202DE0236AB3F5803F1AD01749EB
:1029B0004B6823F47413226A606A024313434B602A
:1029C000134B01221A60FEF723F804460F4B1B68D5
:1029D00013F0007F0ED1FEF71BF8001B0228F5D97B
:1029E00003200EE0094A536823F40033A1680B4327
:1029F0005360DCE7002004E0002002E0012000E05A
:102A0000002002B070BD0120FBE700BF00100240B3
:102A10006000424210B487B0164C94E80F000DF1EC
:102A2000180C0CE90F00238AADF80430124B5B68D8
:102A300003F00C02082A1AD1C3F38342624412F84D
:102A4000102C13F4803F05D10C4800FB02F007B0B6
:102A500010BC7047084B5B68C3F34043634413F8F2
:102A6000143C074800FB02F0B0FBF3F0EFE704482A
:102A7000EDE700BF044900080010024000093D00D6
:102A800000127A00594B1B6803F007038B420CD2EB
:102A9000564A136823F007030B431360136803F0CF
:102AA00007038B4201D00120704770B5036813F013
:102AB000020F06D04E4A536823F0F0038468234384
:102AC00053600C460546036813F0010F52D043686B
:102AD000012B23D0022B28D0454A126812F0020F96
:102AE00000F0828042494A6822F0030213434B609F
:102AF000FDF78EFF06466B68012B1DD0022B2AD0F6
:102B00003B4B5B6813F00C0F34D0FDF781FF801B4B
:102B100041F288339842F3D9032064E0344A1268C2
:102B200012F4003FDED101205DE0314A126812F05C
:102B3000007FD7D1012056E02D4B5B6803F00C03DA
:102B4000042B17D0FDF764FF801B41F288339842B5
:102B5000F2D9032047E0264B5B6803F00C03082BF7
:102B600008D0FDF755FF801B41F288339842F2D917
:102B7000032038E01D4B1B6803F00703A3420CD968
:102B80001A4A136823F0070323431360136803F002
:102B90000703A34201D0012025E02B6813F0040FA6
:102BA00006D0134A536823F4E063E9680B4353608B
:102BB0002B6813F0080F07D00D4A536823F46053B5
:102BC000296943EAC1035360FFF724FF084B5B68A0
:102BD000C3F30313074AD35CD840074B18600020A7
:102BE000FDF7D4FE002070BD0120FCE7002002406C
:102BF000001002401849000808000020014B186826
:102C0000704700BF0800002008B5FFF7F7FF044B2E
:102C10005B68C3F30223034AD35CD84008BD00BFFE
:102C2000001002402849000808B5FFF7E7FF044BF1
:102C30005B68C3F3C223034AD35CD84008BD00BF1E
:102C4000001002402849000870B582B004460368AD
:102C500013F0010F34D03E4BDB6913F0805F48D195
:102C60003B4BDA6942F08052DA61DB6903F0805352
:102C70000193019B0125374B1B6813F4807F3AD0E9
:102C8000334B1B6A13F4407311D0626802F4407234
:102C90009A420CD02E4A136A23F440702E49012622
:102CA0000E6000260E60106213F0010F37D1284A23
:102CB000136A23F4407361680B431362002D3FD104
:102CC000236813F0020F06D0214A536823F44043CF
:102CD000A1680B435360236813F0100F35D01C4AD2
:102CE000536823F48003E1680B435360002002B073
:102CF00070BD0025BFE7174A136843F48073136063
:102D0000FDF786FE0646134B1B6813F4807FB7D190
:102D1000FDF77EFE801B6428F5D90320E7E7FDF769
:102D200077FE06460A4B1B6A13F0020FBFD1FDF770
:102D30006FFE801B41F288339842F3D90320D6E717
:102D4000D36923F08053D361BAE70020CFE700BFF7
:102D500000100240007000404004424210B4036A78
:102D6000046A24F001040462846924F0F00444EA53
:102D7000021223F00A030B438261036210BC704706
:102D800010B4036A23F0100303628469036A24F415
:102D9000704444EA023223F0A00343EA0113826143
:102DA000036210BC7047836823F0700341F0070191
:102DB00019438160704710B4846824F47F4442EA68
:102DC00003230B432343836010BC7047022380F826
:102DD0003D300268136843F001031360012380F85B
:102DE0003D300020704790F83C30012B7DD010B56D
:102DF0000446012380F83C30022380F83D3002680D
:102E0000936823F47F4323F0770393600B68402B90
:102E100057D010D9702B3ED01FD8502B47D0602BE5
:102E200032D1CA6849680068FFF7AAFF60212068AC
:102E3000FFF7B9FF28E0102B4DD008D9202B4FD039
:102E4000302B21D130210068FFF7ADFF1CE0DBB94A
:102E500000210068FFF7A7FF16E0B3F5805F0ED0F2
:102E6000B3F5005F10D1CB684A6889680068FFF746
:102E7000A2FF2268936843F48043936004E00268F1
:102E8000936823F007039360012384F83D3000200A
:102E900084F83C0010BDCB684A6889680068FFF779
:102EA0008AFF2268936843F077039360ECE7CA686F
:102EB00049680068FFF752FF50212068FFF773FF51
:102EC000E2E7CA6849680068FFF748FF40212068C8
:102ED000FFF769FFD8E710210068FFF764FFD3E729
:102EE00020210068FFF75FFFCEE7022070477047A0
:102EF00070477047704710B5044603681A6912F0AE
:102F0000020F11D0DA6812F0020F0DD06FF002023A
:102F10001A610123037703689B6913F0030F70D0D4
:102F2000FFF7E6FF0023237723681A6912F0040FE6
:102F300012D0DA6812F0040F0ED06FF004021A619A
:102F40000223237723689B6913F4407F5FD02046D8
:102F5000FFF7CEFF0023237723681A6912F0080FCA
:102F600012D0DA6812F0080F0ED06FF008021A6162
:102F7000042323772368DB6913F0030F4ED0204628
:102F8000FFF7B6FF0023237723681A6912F0100FAA
:102F900012D0DA6812F0100F0ED06FF010021A6122
:102FA000082323772368DB6913F4407F3DD0204654
:102FB000FFF79EFF0023237723681A6912F0010FA1
:102FC00003D0DA6812F0010F36D123681A6912F0C3
:102FD000800F03D0DA6812F0800F34D123681A69A9
:102FE00012F0400F03D0DA6812F0400F32D123689C
:102FF0001A6912F0200F03D0DA6812F0200F30D1D6
:1030000010BDFFF774FF2046FFF773FF8AE72046E5
:10301000FFF76DFF2046FFF76CFF9BE72046FFF7A9
:1030200066FF2046FFF765FFACE72046FFF75FFF2E
:103030002046FFF75EFFBDE76FF001021A612046F0
:1030400001F000F9C1E76FF080021A61204600F03C
:103050008CF8C3E76FF040021A612046FFF74AFF81
:10306000C5E76FF020021A61204600F07DF8C7E73F
:1030700003681B4A90420AD0B0F1804F07D0A2F5F6
:103080009432904203D002F58062904203D123F043
:1030900070034A681343124A90420AD0B0F1804F3D
:1030A00007D0A2F59432904203D002F5806290429C
:1030B00003D123F44073CA68134323F080034A69A1
:1030C000134303608B68C3620B688362044B9842AE
:1030D00002D00123436170470B690363F9E700BF26
:1030E000002C0140A8B110B5044690F83D305BB10A
:1030F000022384F83D30211D2068FFF7B9FF01232A
:1031000084F83D30002010BD80F83C3001F0B2FA68
:10311000EEE70120704790F83C30012B22D030B40C
:10312000012280F83C20022380F83D300468636867
:1031300023F070036360046863680D682B43636069
:103140000468A36823F08003A3600468A368496847
:103150000B43A36080F83D20002380F83C301846E4
:1031600030BC704702207047704770470268D368D0
:1031700023F0C003D360202380F839307047026801
:10318000D36823F49073D3600268536923F001037A
:103190005361202380F83A30704790F83930DBB221
:1031A000212B2AD18368B3F5805F16D0036A5A1C9D
:1031B00002621A7803685A60C38C013B9BB2C384D5
:1031C000EBB90268D36823F08003D3600268D36848
:1031D00043F04003D36000207047036A1B880268F5
:1031E000C3F30803536003691BB9036A0233036224
:1031F000E2E7036A01330362DEE702207047002042
:10320000704700002DE9F84305460268136923F46E
:103210004053C1680B4313618368026913434269D9
:1032200013430168CA6822F4B05222F00C0213431F
:10323000CB600268536923F4407381690B43536187
:103240000268594B9A4257D0FFF7DEFC00EB800032
:1032500000EB80006C68A400B0FBF4F4534FA7FBB4
:10326000043464092601FFF7CFFC00EB800000EB7B
:1032700080006C68A400B0FBF4F9FFF7C5FC00EB1C
:10328000800000EB80006C68A400B0FBF4F4A7FBA6
:10329000043464094FF0640808FB149424013234A8
:1032A000A7FB0434640904F0F0043444FFF7ACFCD9
:1032B00000EB800000EB80006E68B600B0FBF6F615
:1032C000FFF7A2FC00EB800000EB80006B689B0026
:1032D000B0FBF3F0A7FB0030400908FB10684FEA91
:1032E000081808F13208A7FB0837C7F343172B6803
:1032F00027449F60BDE8F883FFF796FC00EB800051
:1033000000EB80006C68A400B0FBF4F4274FA7FB2F
:10331000043464092601FFF787FC00EB800000EB12
:1033200080006C68A400B0FBF4F9FFF77DFC00EBB3
:10333000800000EB80006C68A400B0FBF4F4A7FBF5
:10334000043464094FF0640808FB149424013234F7
:10335000A7FB0434640904F0F0043444FFF764FC70
:1033600000EB800000EB80006E68B600B0FBF6F664
:10337000FFF75AFC00EB800000EB80006B689B00BD
:10338000B0FBF3F0A7FB0030400908FB10684FEAE0
:10339000081808F13208A7FB0837C7F343172B6852
:1033A00027449F60A6E700BF003801401F85EB510E
:1033B00058B310B5044690F839300BB3242384F881
:1033C00039302268D36823F40053D3602046FFF7D6
:1033D00019FF2268136923F490431361226853692B
:1033E00023F02A0353612268D36843F40053D36067
:1033F0000020E063202384F8393084F83A3010BD8F
:1034000080F8383001F066F9D8E7012070470000F5
:1034100038B590F83940E4B2202C31D1002931D0B0
:10342000002A31D090F83830012B2FD013460446B3
:10343000012280F8382001628384C3840025C5639B
:10344000212280F83920026B11489062226B1148CA
:10345000D062226B10481063226B556322680432DD
:10346000206BFEF7B5F923686FF040021A6084F80C
:1034700038502268536943F080035361284600E0C6
:10348000022038BD0120FCE70120FAE70220F8E71E
:103490009D340008E93400089335000808B5436AF4
:1034A0000268126812F0200F0CD10022DA84196829
:1034B0004A6922F080024A611A68D36843F04003E7
:1034C000D36008BD184600F0B9FDFAE708B50168F9
:1034D000CB6823F04003CB60202380F8393000F024
:1034E000ADFD002008BD704708B5406AFFF7FBFF3F
:1034F00008BD704708B590F83A30DBB2222B45D1B1
:103500008368B3F5805F0ED0036903BB03685A6814
:10351000836A591C81621A70C38D013B9BB2C385BB
:10352000F3B1002033E0826A036943B903685B6842
:10353000C3F308031380836A02338362ECE70368F2
:103540005B68DBB21380836A01338362E4E703685C
:103550005B68826A511C816203F07F031370DBE7B2
:103560000268D36823F02003D3600268D36823F491
:103570008073D3600268536923F0010353612023F1
:1035800080F83A30FFF7B5FF002000E0022008BDC8
:10359000704710B5446A23685A6994F83930DBB231
:1035A000212B10D023685A6902F0400294F83A3077
:1035B000DBB2222B11D0E36B43F01003E363204610
:1035C000FFF7E6FF10BD02F08002002AEAD00023D8
:1035D000E3842046FFF7CAFDE4E7002AEBD000238E
:1035E000E3852046FFF7CBFDE5E7000010B5044674
:1035F00002681368D168526913F00F0005D113F007
:10360000200F02D011F0200F53D1002867D012F004
:10361000010202D111F4907F61D013F0010F06D0A6
:1036200011F4807F03D0E06B40F00100E06313F001
:10363000040F04D01AB1E06B40F00200E06313F015
:10364000020F04D01AB1E06B40F00400E06313F005
:10365000080F04D01AB1E26B42F00802E263E26B99
:10366000002A48D013F0200F02D011F0200F24D1EF
:1036700023685B6903F04003E26B12F0080F00D18E
:103680003BB32046FFF77BFD23685A6912F0400FD9
:103690001BD05A6922F040025A61636B8BB11A4AFF
:1036A0005A63606BFEF7CEF828B3606B436B9847A4
:1036B00021E02046FFF71EFF1DE02046FFF71AFF1E
:1036C000D6E72046FFF764FF15E02046FFF760FFCE
:1036D00011E02046FFF75CFF0023E3630BE013F0EB
:1036E000800F02D011F0800F06D113F0400F02D0EE
:1036F00011F0400F04D110BD2046FFF74EFDFAE750
:103700002046FFF7E3FEF6E70D37000808B5406AEC
:103710000023C385C384FFF73BFF08BD90F8393011
:1037200090F83A00184370472DE9F04389B0414BB7
:103730009A6942F010029A619A6902F010020092AE
:10374000009A9A6942F020029A619A6902F0200276
:103750000192019A9A6942F004029A619A6902F010
:1037600004020292029A9A6942F008029A619B69E5
:1037700003F008030393039BDFF8C89000224FF483
:1037800060414846FEF73DFA2B4F002201213846A2
:10379000FEF737FA294D002222212846FEF731FA9A
:1037A0004FF46043049301260596002406944FF0DD
:1037B0000208CDF81C8004A94846FEF731F90496AA
:1037C00005960694CDF81C8004A93846FEF728F922
:1037D0002223049305960694CDF81C8004A928465C
:1037E000FEF71EF948F2180304930594069404A901
:1037F0002846FEF715F94FF4014304930594069407
:1038000004A93846FEF70CF94FF4807304930C4B6F
:103810000593069404A92846FEF702F9224621469C
:103820001720FDF717FF1720FDF748FF09B0BDE887
:10383000F08300BF0010024000080140000C01406E
:10384000000031100010014000B583B00E4B5A69E2
:1038500042F001025A615B6903F001030193019B8D
:10386000002211460B20FDF7F5FE0B20FDF726FF89
:10387000002211460E20FDF7EDFE0E20FDF71EFF83
:1038800003B05DF804FB00BF001002402DE9F041D9
:1038900084B0254C254B23604FF48073A360012630
:1038A000E660002363614FF46022E26163600625F5
:1038B00025612046FDF79CFA4FF00408CDF80480FE
:1038C000029603950DEB08012046FDF7F7F8052752
:1038D0000197022302930DEB08012046FDF7EEF855
:1038E0000195032602960DEB08012046FDF7E6F848
:1038F00007230193CDF808800DEB08012046FDF762
:10390000DDF80823019302970DEB08012046FDF72F
:10391000D5F8019602950DEB08012046FDF7CEF88B
:1039200004B0BDE8F08100BFC803002000240140BE
:1039300008B50C480C4B03600323436000238360ED
:10394000C3604FF4802202614FF4A00242618361A0
:103950000122C261036243628362C362FDF753FBCB
:1039600008BD00BF640200200064004008B509489B
:10397000094B0360094B436000238360C3604FF42D
:103980008042026143618361C3610362FEF74EFBC3
:1039900008BD00BFBC01002000580040A086010007
:1039A00030B587B00F4C104B236048F6A0436360DE
:1039B0000025A5603123E3602561A5612046FFF75E
:1039C00091FB06A94FF4805341F8103D2046FFF7C4
:1039D0000AFA0095019569462046FFF79CFB07B05F
:1039E00030BD00BFD80200200004004030B587B0D1
:1039F0000F4C104B2360902363600025A5604FF2AD
:103A00003023E3602561A5612046FFF76BFB06A923
:103A10004FF4805341F8103D2046FFF7E4F900953C
:103A2000019569462046FFF776FB07B030BD00BF21
:103A3000F40000200008004008B50848084B036067
:103A40004FF41643436000238360C36003610C227C
:103A500042618361C361FFF7ABFC08BDE404002051
:103A60000038014030B58BB0134C144B23631C332A
:103A7000636300250595069501230793009501953D
:103A800002950395049508930E23099369462046F1
:103A9000FDF736FA236B40F221321A60236B084A95
:103AA0005A60236BDD60236B04229A60236B022231
:103AB0001A610BB030BD00BF640200202800002056
:103AC00000000818F0B44FF4967225E02B4951F825
:103AD00022002B4B1C6C20441864501C51F8200011
:103AE0005C6C20445864901C51F820009C6C20446D
:103AF0009864D01C51F82000DC6C2044D864101D60
:103B000051F820001C6D20441865501D51F82010FC
:103B1000586D01445965063240F252239A42D5DD70
:103B2000174B1E6C174FA7FB062676091E645D6CAB
:103B3000A7FB05256D095D649C6CA7FB0424640943
:103B40009C64D86CA7FB00204009D864196DA7FBC2
:103B50000121490919655A6DA7FB027252095A657C
:103B6000A3F85860A3F85A50A3F85C40A3F85E008D
:103B7000A3F86010A3F86220F0BC7047D8050020BD
:103B8000280000201F85EB510022B2F5937F2BDC2B
:103B900010B4164951F82200154B1C6C20441864CF
:103BA000501C51F820005C6C20445864901C51F863
:103BB00020009C6C20449864D01C51F82000DC6CE0
:103BC0002044D864101D51F820001C6D2044186555
:103BD000501D51F82010586D014459650632B2F558
:103BE000937FD6DD10BC7047704700BFD80500201A
:103BF0002800002030B595B001220A924FF480339E
:103C00000B9300240C940E920225119512934FF4FD
:103C1000E01313930AA8FEF70FFD0F2305930695F3
:103C200007944FF4806308930994294605A8FEF78A
:103C300029FF01954FF40043039301A8FFF704F80F
:103C4000FEF7DCFF084BA3FB00308009FDF742FDC7
:103C50000420FDF755FD224621464FF0FF30FDF7C9
:103C6000F9FC15B030BD00BFD34D6210000000005C
:103C700008B50C282CD00ED804281CD006D908284A
:103C80002DD00A2806D11C4B198003E0022801D14F
:103C90001A4B198008BD1A281DD007D9202821D019
:103CA0008428F7D1164BA3F86610F3E71228F1D158
:103CB000144B1980EEE70846FCF79CFB0CA3D3E9F4
:103CC0000023FCF701FCFCF711FE0F4B1860E1E745
:103CD0000E4B1980DEE70A4BA3F86810DAE70C4BAD
:103CE0001980D7E7064BA3F86610D3E7AFF300803F
:103CF000FCA9F1D24D62503FEC00002010020020E0
:103D000028000020EE00002098010020240500205B
:103D1000720F002010B40E4B40F221321A605A602C
:103D20000021D96004229A601A610A4B40F22510E2
:103D300018605860D9609A6002241C61064B1860B4
:103D400043F244205860D9609A601C6110BC7047EF
:103D5000BC020020B4040020F803002008B5FCF7E2
:103D600039FEFFF747FFFFF7DFFCFFF76DFDFFF7B9
:103D70008DFDFFF7DDFDFFF7F9FDFFF711FEFFF702
:103D80005BFEFFF733FE4FF47A60FCF747FE184CFA
:103D900000224FF400512046FDF733FF4FF4FA7034
:103DA000FCF73CFE01224FF400512046FDF729FFAD
:103DB0004FF4FA70FCF732FE00224FF40051204617
:103DC000FDF71FFF4FF4FA70FCF728FEFFF74AFEDD
:103DD000FFF7A0FF4FF4167206490748FCF74AFFA9
:103DE0000648FEF7F3FF00210548FDF7A7F9FEE7B7
:103DF00000100140D8050020C8030020F400002076
:103E000064020020F8B50546854E012386F86A3025
:103E10004FF400518348FDF7FAFE686B047C476855
:103E2000F766002305E0C218117D7F4AD1540133A3
:103E3000DBB2A342F7D34368DB0CB3F5207F15D088
:103E4000B3F5407F6DD040F20232934200F0D4804F
:103E5000734CD4F898300133C4F8983000212846C8
:103E6000FDF76CF9002384F86A30F8BD8268042AF3
:103E7000E6D1C7F3C2276D4B1F706B4B1B7803BB9A
:103E8000674B0022A3F87020012283F87220664A53
:103E900053781B0203F4E06392781343644A13805F
:103EA00003230BE05E49B1F870205F48C65C6148AF
:103EB00086540132A1F870200133DBB2A342F1D362
:103EC000C6E7574A92F872209342C1D10132544B4F
:103ED00083F8722001260DE0514BB3F87030544A3C
:103EE0001288013A9342B3D001334D4AA2F87030A0
:103EF0000136F6B2A642ABD2494BB3F870304A4A0B
:103F0000925D4C49CA5403F003010329E4D19F1E7A
:103F10004848013BC15C42EA0121C05DFFF7A8FEB1
:103F2000DAE78268042A8ED13D4B012283F87320A0
:103F3000002305E03C4AD15C3F4AD1540133DBB257
:103F4000072BF7D93C4B1B780A3B032B80D8DFE8C3
:103F500003F00215293E384A517893781B0243EA50
:103F60000143D1780B432E494B67507993791B025B
:103F700043EA0043D27913438B6769E72E4A5178AD
:103F800093781B0243EA0143D1780B432449CB6762
:103F9000507993791B0243EA0043D2791343C1F865
:103FA000803055E7244A517893781B0243EA014355
:103FB000D1780B431A49C1F88430507993791B02A8
:103FC00043EA0043D2791343C1F8883040E71A4AE4
:103FD000517893781B0243EA0143D1780B4310498F
:103FE000C1F88C30507993791B0243EA0043D279AF
:103FF0001343C1F890302BE78368042B7FF428AF7C
:10400000094B59789A7842EA01220549A1F894208F
:104010001A795B7943EA0223A1F8963018E700BFCA
:104020002800002000100140480F00201A03002043
:10403000B8020020140200203C0F0020704700004E
:1040400010B40138032830D8DFE800F00231689856
:104050006C4B01221A7005225A706B4AB2F900208B
:1040600011129970DA70694AB2F9002011121971AF
:104070005A71674AB2F9002011129971DA71654AD2
:10408000B2F868101972B2F8620063490C78010A3C
:1040900041EAC41159729872B2F86420110AD972B7
:1040A0001A7309225A730A229A7310BC70475B4B29
:1040B00002221A7005225A70594A1288110A997000
:1040C000DA70584A1288110A19715A71564A1288C0
:1040D000110A9971DA714F4AB2F85810080A187229
:1040E0005972B2F85A10080A9872D972B2F85C1074
:1040F000080A18735973B2F8600092F89C40010ADC
:1041000041EAC4119973D873B2F86420110A197482
:104110005A7409229A740A22DA74C6E7434B0322BE
:104120001A70434A1288110A59709A70414A1288CB
:10413000110AD9701A713749B1F85E003E4A1478F5
:10414000020A42EAC41252B23C4C247842EA4412B7
:104150005A719871B1F89420100AD8711A72B1F896
:104160009620100A58729A72B1F86420110AD97216
:104170001A7309225A730A229A7396E7304B042263
:104180001A700A205870234A516F0C0C9C700C0A4C
:10419000DC701971916F0C0C5C710C0A9C71D971F7
:1041A000D16F0C0C1C720C0A5C729972D2F88010E0
:1041B0000C0CDC720C0A1C735973D2F884100C0CB2
:1041C0009C730C0ADC731974D2F888100C0C5C74A4
:1041D0000C0A9C74D974D2F88C100C0C1C750C0A47
:1041E0005C759975D2F890100C0CDC750C0A1C7675
:1041F0005976B2F86420110A9976DA7609221A778C
:10420000587752E7A802002012020020F000002098
:104210001C03002028000020380F0020D0040020BC
:10422000EC0000202405002010020020DC0000200B
:10423000720F0020EE000020440F0020700F0020BD
:104240009C01002010B5464CB4F864300133A4F84A
:10425000643008214348FDF7CDFC434B18704FF400
:1042600080714248FDF7C6FC012084F89C00FFF7EE
:10427000E7FE3F48FFF752FA2028FAD10F223D49C6
:104280003B48FFF7C5F8364B93F89D3023B9344BC4
:1042900093F87330012B24D00220FFF7D1FE304B6E
:1042A00093F89D30012B2AD0334C2146334800F03F
:1042B000ACF8B4F90C20324B1A80B4F90E20314B13
:1042C0001A80B4F91020304B1A80254B93F89D20AA
:1042D000013283F89D2093F89E20013283F89E20BE
:1042E00010BD0420FFF7ACFE2148FFF717FA202885
:1042F000FAD11E2225491E48FFF78AF8CCE71C4850
:10430000FFF70CFA2028FAD1142221491848FFF7A8
:104310007FF8134BFF2283F89D2093F89E30132BD8
:10432000C2D110210F48FDF765FC1A4B18704FF4ED
:1043300000410E48FDF75EFC174B18700320FFF795
:104340007FFE0B48FFF7EAF92028FAD10F22134924
:104350000748FFF75DF8024BFF2283F89E20A3E792
:1043600028000020000C0140380F00200008014008
:10437000E4040020A8020020540F0020BC0100200B
:1043800012020020F00000201C0300209C010020ED
:10439000D0040020700F0020440F0020DC0000201B
:1043A000B0F5807F00D0704708B54FF48071134896
:1043B000FDF720FC28B9124B5A6A124BC3F8A4200F
:1043C00008BD0F4B5A6A0F49C1F8A020002058625F
:1043D000D1F8A4004FF47A7303FB00F3B3FBF2F3BC
:1043E000C1F8A83003EB8303C3EBC3031A0102F542
:1043F00072533033A1F89430E2E700BF000C014063
:1044000000080040280000207047F0B587B005463E
:104410000F463B238DF80F300E78B4B20A23009379
:1044200001230DF10F0221462846FDF7B3FE0028B7
:10443000F3D10A230093062304AA21462846FDF758
:104440006BFF0028F5D19DF810209DF8113043EA4C
:104450000223BB819DF812209DF8133043EA02230A
:10446000FB819DF814209DF8153043EA02233B821E
:1044700007B0F0BD00B583B0244B9A6942F0010249
:104480009A619A6902F001020092009ADA6942F098
:104490008052DA61DB6903F080530193019B0420B1
:1044A000FDF7C6F8002211466FF00B00FDF7D2F8B9
:1044B000002211466FF00A00FDF7CCF800221146E9
:1044C0006FF00900FDF7C6F8002211466FF00400F6
:1044D000FDF7C0F8002211466FF00300FDF7BAF8AF
:1044E000002211466FF00100FDF7B4F800221146DA
:1044F0004FF0FF30FDF7AEF8054A536823F0E06354
:1045000043F00073536003B05DF804FB00100240F9
:104510000000014002681F4B9A4200D0704730B53E
:1045200087B0044603F56C439A6942F400729A61BD
:104530009B6903F400730193019BF8230293032505
:10454000039502A91448FDF76BFA01230293039522
:1045500002A91248FDF764FA1148124B03600023C8
:10456000436083608022C2604FF4007202614FF4A6
:104570000062426120228261C361FDF7EDF820B93B
:10458000074B23625C6207B030BD81210648FFF70C
:104590003BFFF5E70024014000080140000C01400A
:1045A00030050020080002403049000802681C4B1A
:1045B0009A4200D0704730B587B003F5D633DA6938
:1045C00042F00072DA61DB6903F000730193019B32
:1045D0004FF400630293002403940494114D02A944
:1045E0002846FDF71DFA4FF48053029302230393EC
:1045F0000323059302A92846FDF712FA2246214615
:104600001320FDF727F81320FDF758F8224621461E
:104610001420FDF71FF81420FDF750F807B030BD47
:10462000006400400008014002680F4B9A4200D02D
:10463000704700B587B04FF4406302931223039391
:104640000323059302A90948FDF7EAF9084BDA6943
:1046500042F48002DA61DB6903F480030193019B79
:1046600007B05DF804FB00BF00580040000C01409B
:104670000010024000B583B00368134A934205D08E
:10468000124A934215D003B05DF804FB104BDA696F
:1046900042F00202DA61DB6903F002030093009B3F
:1046A000012211461D20FCF7D5FF1D20FDF706F85D
:1046B000E9E7074BDA6942F00402DA61DB6903F0EB
:1046C00004030193019BDEE7000400400008004062
:1046D000001002400268264B9A4200D0704770B525
:1046E00086B0044603F558439A6942F480429A61C1
:1046F0009B6903F480430193019B4FF40073029381
:1047000002230393032305931A4E02A93046FDF7B3
:1047100087F94FF48063029300250395049502A95D
:104720003046FDF77DF91448144B036010234360B5
:1047300085608023C3600561456185614FF48053C6
:10474000C361FDF709F860B90B4B23635C6200227B
:1047500011462520FCF77EFF2520FCF7AFFF06B0B1
:1047600070BD40F287110648FFF74EFEECE700BF30
:1047700000380140000801402003002044000240AE
:10478000304900087047FEE7FEE7FEE7FEE77047A6
:104790007047704708B5FCF72FF9FCF7C2FF08BD5A
:1047A00008B50248FDF79AF808BD00BF30050020A3
:1047B00008B50248FDF792F808BD00BF20030020AD
:1047C00008B50248FCF736FE08BD00BF64020020B1
:1047D00008B50248FCF72EFE08BD00BF64020020A9
:1047E00008B54FF48070FDF717FA08BD08B5024808
:1047F000FEF781FB08BD00BFD802002008B50248C3
:10480000FEF7F4FE08BD00BFE40400200F4B1A6859
:1048100042F001021A6059680D4A0A405A601A684B
:1048200022F0847222F480321A601A6822F4802204
:104830001A605A6822F4FE025A604FF41F029A600E
:10484000044B4FF000629A60704700BF00100240B6
:104850000000FFF800ED00E0002103E00B4B5B5887
:10486000435004310A480B4B42189A42F6D30A4A85
:1048700002E0002342F8043B084B9A42F9D3FFF7C9
:10488000C5FF00F00FF8FFF769FA704754490008B8
:10489000000000200C0000200C000020740F0020FD
:1048A000FEE7000070B500250C4E0D4CA41BA410B3
:1048B000A54209D100F01AF800250A4E0A4CA41BA3
:1048C000A410A54205D170BD56F825309847013592
:1048D000EEE756F8253098470135F2E74C490008D5
:1048E0004C4900084C49000850490008F8B500BF81
:1048F000F8BC08BC9E467047F8B500BFF8BC08BCC1
:044900009E46704718
:1049040002030405060708090A0B0C0D0E0F10100C
:104914000102000000000000000000000102030486
:104924000607080900000000010203042E2E2F537D
:1049340072632F73746D3332663178785F68616C9B
:084944005F6D73702E6300002B
:04494C003501000829
:044950001101000849
:0C495400010000001000000000A24A0456
:04000005080048594E
:00000001FF
